{
  "contractName": "Vehicle",
  "abi": [
    {
      "constant": true,
      "inputs": [],
      "name": "Model",
      "outputs": [
        {
          "name": "",
          "type": "string"
        }
      ],
      "payable": false,
      "stateMutability": "view",
      "type": "function"
    },
    {
      "constant": false,
      "inputs": [
        {
          "name": "newOwner",
          "type": "address"
        },
        {
          "name": "ownerName",
          "type": "string"
        }
      ],
      "name": "changeOwner",
      "outputs": [],
      "payable": false,
      "stateMutability": "nonpayable",
      "type": "function"
    },
    {
      "constant": false,
      "inputs": [
        {
          "name": "ownerName",
          "type": "string"
        },
        {
          "name": "reg",
          "type": "string"
        },
        {
          "name": "vin",
          "type": "string"
        },
        {
          "name": "make",
          "type": "string"
        },
        {
          "name": "model",
          "type": "string"
        }
      ],
      "name": "createVehicle",
      "outputs": [],
      "payable": false,
      "stateMutability": "nonpayable",
      "type": "function"
    },
    {
      "constant": true,
      "inputs": [],
      "name": "Make",
      "outputs": [
        {
          "name": "",
          "type": "string"
        }
      ],
      "payable": false,
      "stateMutability": "view",
      "type": "function"
    },
    {
      "constant": true,
      "inputs": [],
      "name": "Reg",
      "outputs": [
        {
          "name": "",
          "type": "string"
        }
      ],
      "payable": false,
      "stateMutability": "view",
      "type": "function"
    },
    {
      "constant": true,
      "inputs": [],
      "name": "Vin",
      "outputs": [
        {
          "name": "",
          "type": "string"
        }
      ],
      "payable": false,
      "stateMutability": "view",
      "type": "function"
    },
    {
      "constant": true,
      "inputs": [],
      "name": "Owner",
      "outputs": [
        {
          "name": "",
          "type": "address"
        }
      ],
      "payable": false,
      "stateMutability": "view",
      "type": "function"
    },
    {
      "constant": true,
      "inputs": [],
      "name": "OwnerName",
      "outputs": [
        {
          "name": "",
          "type": "string"
        }
      ],
      "payable": false,
      "stateMutability": "view",
      "type": "function"
    },
    {
      "inputs": [],
      "payable": false,
      "stateMutability": "nonpayable",
      "type": "constructor"
    },
    {
      "payable": false,
      "stateMutability": "nonpayable",
      "type": "fallback"
    },
    {
      "anonymous": false,
      "inputs": [
        {
          "indexed": false,
          "name": "eventTimeStap",
          "type": "uint256"
        },
        {
          "indexed": false,
          "name": "eventName",
          "type": "string"
        },
        {
          "indexed": false,
          "name": "eventDescription",
          "type": "string"
        }
      ],
      "name": "EventHappened",
      "type": "event"
    }
  ],
  "bytecode": "0x6060604052341561000f57600080fd5b336000806101000a81548173ffffffffffffffffffffffffffffffffffffffff021916908373ffffffffffffffffffffffffffffffffffffffff16021790555061109d8061005e6000396000f30060606040526004361061008e576000357c0100000000000000000000000000000000000000000000000000000000900463ffffffff16806323cd7cd51461009e5780633b710f8c1461012c578063403e0416146101a85780635065235714610311578063522ea4c11461039f578063a1bf351c1461042d578063b4a99a4e146104bb578063d05c715a14610510575b341561009957600080fd5b600080fd5b34156100a957600080fd5b6100b161059e565b6040518080602001828103825283818151815260200191508051906020019080838360005b838110156100f15780820151818401526020810190506100d6565b50505050905090810190601f16801561011e5780820380516001836020036101000a031916815260200191505b509250505060405180910390f35b341561013757600080fd5b6101a6600480803573ffffffffffffffffffffffffffffffffffffffff1690602001909190803590602001908201803590602001908080601f0160208091040260200160405190810160405280939291908181526020018383808284378201915050505050509190505061063c565b005b34156101b357600080fd5b61030f600480803590602001908201803590602001908080601f0160208091040260200160405190810160405280939291908181526020018383808284378201915050505050509190803590602001908201803590602001908080601f0160208091040260200160405190810160405280939291908181526020018383808284378201915050505050509190803590602001908201803590602001908080601f0160208091040260200160405190810160405280939291908181526020018383808284378201915050505050509190803590602001908201803590602001908080601f0160208091040260200160405190810160405280939291908181526020018383808284378201915050505050509190803590602001908201803590602001908080601f01602080910402602001604051908101604052809392919081815260200183838082843782019150505050505091905050610808565b005b341561031c57600080fd5b610324610882565b6040518080602001828103825283818151815260200191508051906020019080838360005b83811015610364578082015181840152602081019050610349565b50505050905090810190601f1680156103915780820380516001836020036101000a031916815260200191505b509250505060405180910390f35b34156103aa57600080fd5b6103b2610920565b6040518080602001828103825283818151815260200191508051906020019080838360005b838110156103f25780820151818401526020810190506103d7565b50505050905090810190601f16801561041f5780820380516001836020036101000a031916815260200191505b509250505060405180910390f35b341561043857600080fd5b6104406109be565b6040518080602001828103825283818151815260200191508051906020019080838360005b83811015610480578082015181840152602081019050610465565b50505050905090810190601f1680156104ad5780820380516001836020036101000a031916815260200191505b509250505060405180910390f35b34156104c657600080fd5b6104ce610a5c565b604051808273ffffffffffffffffffffffffffffffffffffffff1673ffffffffffffffffffffffffffffffffffffffff16815260200191505060405180910390f35b341561051b57600080fd5b610523610a81565b6040518080602001828103825283818151815260200191508051906020019080838360005b83811015610563578082015181840152602081019050610548565b50505050905090810190601f1680156105905780820380516001836020036101000a031916815260200191505b509250505060405180910390f35b60058054600181600116156101000203166002900480601f0160208091040260200160405190810160405280929190818152602001828054600181600116156101000203166002900480156106345780601f1061060957610100808354040283529160200191610634565b820191906000526020600020905b81548152906001019060200180831161061757829003601f168201915b505050505081565b6000809054906101000a900473ffffffffffffffffffffffffffffffffffffffff1673ffffffffffffffffffffffffffffffffffffffff163373ffffffffffffffffffffffffffffffffffffffff16141561080457816000806101000a81548173ffffffffffffffffffffffffffffffffffffffff021916908373ffffffffffffffffffffffffffffffffffffffff16021790555080600190805190602001906106e7929190610fa4565b507faca599ff4f085e9a74179a3d5fa8ec74baf760c5f6b22a7508c88000a073df4d426107496040805190810160405280600a81526020017f4e6577204f776e65723a0000000000000000000000000000000000000000000081525084610b1f565b6040518083815260200180602001806020018381038352600d8152602001807f4f776e6572204368616e67656400000000000000000000000000000000000000815250602001838103825284818151815260200191508051906020019080838360005b838110156107c75780820151818401526020810190506107ac565b50505050905090810190601f1680156107f45780820380516001836020036101000a031916815260200191505b5094505050505060405180910390a15b5050565b846001908051906020019061081e929190610fa4565b508360029080519060200190610835929190610fa4565b50826003908051906020019061084c929190610fa4565b508160049080519060200190610863929190610fa4565b50806005908051906020019061087a929190610fa4565b505050505050565b60048054600181600116156101000203166002900480601f0160208091040260200160405190810160405280929190818152602001828054600181600116156101000203166002900480156109185780601f106108ed57610100808354040283529160200191610918565b820191906000526020600020905b8154815290600101906020018083116108fb57829003601f168201915b505050505081565b60028054600181600116156101000203166002900480601f0160208091040260200160405190810160405280929190818152602001828054600181600116156101000203166002900480156109b65780601f1061098b576101008083540402835291602001916109b6565b820191906000526020600020905b81548152906001019060200180831161099957829003601f168201915b505050505081565b60038054600181600116156101000203166002900480601f016020809104026020016040519081016040528092919081815260200182805460018160011615610100020316600290048015610a545780601f10610a2957610100808354040283529160200191610a54565b820191906000526020600020905b815481529060010190602001808311610a3757829003601f168201915b505050505081565b6000809054906101000a900473ffffffffffffffffffffffffffffffffffffffff1681565b60018054600181600116156101000203166002900480601f016020809104026020016040519081016040528092919081815260200182805460018160011615610100020316600290048015610b175780601f10610aec57610100808354040283529160200191610b17565b820191906000526020600020905b815481529060010190602001808311610afa57829003601f168201915b505050505081565b610b27611024565b610b648383602060405190810160405280600081525060206040519081016040528060008152506020604051908101604052806000815250610b6c565b905092915050565b610b74611024565b610b7c611038565b610b84611038565b610b8c611038565b610b94611038565b610b9c611038565b610ba4611024565b610bac611038565b6000808e98508d97508c96508b95508a94508451865188518a518c5101010101604051805910610bd95750595b9080825280601f01601f1916602001820160405250935083925060009150600090505b8851811015610caf578881815181101515610c1357fe5b9060200101517f010000000000000000000000000000000000000000000000000000000000000090047f0100000000000000000000000000000000000000000000000000000000000000028383806001019450815181101515610c7257fe5b9060200101907effffffffffffffffffffffffffffffffffffffffffffffffffffffffffffff1916908160001a9053508080600101915050610bfc565b600090505b8751811015610d67578781815181101515610ccb57fe5b9060200101517f010000000000000000000000000000000000000000000000000000000000000090047f0100000000000000000000000000000000000000000000000000000000000000028383806001019450815181101515610d2a57fe5b9060200101907effffffffffffffffffffffffffffffffffffffffffffffffffffffffffffff1916908160001a9053508080600101915050610cb4565b600090505b8651811015610e1f578681815181101515610d8357fe5b9060200101517f010000000000000000000000000000000000000000000000000000000000000090047f0100000000000000000000000000000000000000000000000000000000000000028383806001019450815181101515610de257fe5b9060200101907effffffffffffffffffffffffffffffffffffffffffffffffffffffffffffff1916908160001a9053508080600101915050610d6c565b600090505b8551811015610ed7578581815181101515610e3b57fe5b9060200101517f010000000000000000000000000000000000000000000000000000000000000090047f0100000000000000000000000000000000000000000000000000000000000000028383806001019450815181101515610e9a57fe5b9060200101907effffffffffffffffffffffffffffffffffffffffffffffffffffffffffffff1916908160001a9053508080600101915050610e24565b600090505b8451811015610f8f578481815181101515610ef357fe5b9060200101517f010000000000000000000000000000000000000000000000000000000000000090047f0100000000000000000000000000000000000000000000000000000000000000028383806001019450815181101515610f5257fe5b9060200101907effffffffffffffffffffffffffffffffffffffffffffffffffffffffffffff1916908160001a9053508080600101915050610edc565b82995050505050505050505095945050505050565b828054600181600116156101000203166002900490600052602060002090601f016020900481019282601f10610fe557805160ff1916838001178555611013565b82800160010185558215611013579182015b82811115611012578251825591602001919060010190610ff7565b5b509050611020919061104c565b5090565b602060405190810160405280600081525090565b602060405190810160405280600081525090565b61106e91905b8082111561106a576000816000905550600101611052565b5090565b905600a165627a7a72305820d7903d3d32c9bd7142f6b67cff304d8ea03137ad9447ec18dce43cb0503632980029",
  "source": "pragma solidity ^0.4.18;\r\n\r\ncontract Vehicle {\r\n    address public Owner;\r\n    string public OwnerName;\r\n    string public Reg;\r\n    string public Vin;\r\n    string public Make;\r\n    string public Model;\r\n\r\n    function Vehicle() public {\r\n        Owner = msg.sender;\r\n    }\r\n\r\n    modifier onlyOwner() {\r\n        if (msg.sender == Owner)\r\n            _;\r\n    }\r\n    \r\n    function createVehicle(string ownerName,\r\n                            string reg,\r\n                            string vin,\r\n                            string make,\r\n                            string model) public {\r\n        OwnerName = ownerName;\r\n        Reg = reg;\r\n        Vin = vin;\r\n        Make = make;\r\n        Model = model;\r\n    }\r\n\r\n    function changeOwner(address newOwner, string ownerName) public onlyOwner {\r\n        Owner = newOwner;\r\n        OwnerName = ownerName;\r\n        EventHappened(block.timestamp, \"Owner Changed\", strConcat(\"New Owner:\", ownerName));\r\n        \r\n    }\r\n\r\n    event EventHappened(uint256 eventTimeStap, string eventName, string eventDescription);\r\n\r\n    function() public { revert(); }\r\n\r\n\r\n    function strConcat(string _a, string _b, string _c, string _d, string _e) internal returns (string) {\r\n        bytes memory _ba = bytes(_a);\r\n        bytes memory _bb = bytes(_b);\r\n        bytes memory _bc = bytes(_c);\r\n        bytes memory _bd = bytes(_d);\r\n        bytes memory _be = bytes(_e);\r\n        string memory abcde = new string(_ba.length + _bb.length + _bc.length + _bd.length + _be.length);\r\n        bytes memory babcde = bytes(abcde);\r\n        uint k = 0;\r\n        for (uint i = 0; i < _ba.length; i++) babcde[k++] = _ba[i];\r\n        for (i = 0; i < _bb.length; i++) babcde[k++] = _bb[i];\r\n        for (i = 0; i < _bc.length; i++) babcde[k++] = _bc[i];\r\n        for (i = 0; i < _bd.length; i++) babcde[k++] = _bd[i];\r\n        for (i = 0; i < _be.length; i++) babcde[k++] = _be[i];\r\n        return string(babcde);\r\n    }\r\n\r\n    function strConcat(string _a, string _b, string _c, string _d) internal returns (string) {\r\n        return strConcat(_a, _b, _c, _d, \"\");\r\n    }\r\n\r\n    function strConcat(string _a, string _b, string _c) internal returns (string) {\r\n        return strConcat(_a, _b, _c, \"\", \"\");\r\n    }\r\n\r\n    function strConcat(string _a, string _b) internal returns (string) {\r\n        return strConcat(_a, _b, \"\", \"\", \"\");\r\n    }\r\n}",
  "sourcePath": "C:\\Projects\\blockchain-vehicle-ownership\\ethereum\\contracts\\Vehicle.sol",
  "compiler": {
    "name": "solc",
    "version": "0.4.18+commit.9cf6e910.Emscripten.clang"
  },
  "schemaVersion": "1.0.1",
  "updatedAt": "2018-02-05T04:21:02.080Z"
}